:020000040800F2
:1000000000800120A94A0108CD480108D54801080F
:10001000DD480108E5480108ED480108000000003E
:10002000000000000000000000000000F54801088A
:100030000349010800000000114901081F49010897
:10004000F94A0108F94A0108F94A0108F94A010880
:10005000F94A0108F94A0108F94A0108F94A010870
:10006000F94A0108F94A0108F94A0108F94A010860
:10007000F94A0108F94A0108F94A0108F94A010850
:10008000F94A0108F94A01082D490108F94A01080D
:10009000F94A0108F94A0108F94A0108F94A010830
:1000A000F94A0108F94A0108F94A0108F94A010820
:1000B000F94A0108F94A0108F94A0108F94A010810
:1000C000F94A0108F94A0108F94A0108F94A010800
:1000D000F94A0108F94A010849490108F94A0108A1
:1000E000F94A0108F94A0108F94A0108F94A0108E0
:1000F000F94A0108F94A0108F94A0108F94A0108D0
:10010000F94A0108F94A0108F94A0108F94A0108BF
:10011000F94A0108F94A0108F94A0108F94A0108AF
:10012000F94A0108F94A0108F94A0108F94A01089F
:10013000F94A0108F94A0108F94A0108F94A01088F
:10014000F94A0108F94A0108F94A0108F94A01087F
:10015000F94A0108F94A0108F94A0108F94A01086F
:10016000F94A0108F94A0108F94A0108F94A01085F
:10017000F94A0108F94A0108F94A0108000000009B
:08018000F94A0108F94A0108DF
:1001880010B5054C237833B9044B13B10448AFF3C9
:1001980000800123237010BD9003002000000000A0
:1001A80000A7010808B5034B1BB103490348AFF387
:1001B800008008BD000000009403002000A701088B
:1001C80070B54FF0FF0C4CF4E06C1CEA11541DBFE5
:1001D8001CEA135594EA0C0F95EA0C0F00F0DEF8B0
:1001E8002C4481EA030621EA4C5123EA4C5350EA95
:1001F800013518BF52EA033541F4801143F48013E6
:1002080038D0A0FB02CE4FF00005E1FB02E506F076
:100218000042E0FB03E54FF00006E1FB03569CF0CB
:10022800000F18BF4EF0010EA4F1FF04B6F5007FD1
:1002380064F5407404D25FEA4E0E6D4146EB060643
:1002480042EAC62141EA55514FEAC52040EA5E50CC
:100258004FEACE2EB4F1FD0C88BFBCF5E06F1ED876
:10026800BEF1004F08BF5FEA500E50F1000041EBAD
:10027800045170BD06F0004646EA010140EA02005A
:1002880081EA0301B4EB5C04C2BFD4EB0C0541EA7C
:10029800045170BD41F480114FF0000E013C00F391
:1002A800AB8014F1360FDEBF002001F0004170BDB5
:1002B800C4F10004203C35DA0C341BDC04F11404CE
:1002C800C4F1200500FA05F320FA04F001FA05F25A
:1002D80040EA020001F0004221F0004110EBD37027
:1002E80021FA04F642EB06015EEA430E08BF20EA53
:1002F800D37070BDC4F10C04C4F1200500FA04F3F6
:1003080020FA05F001FA04F240EA020001F0004187
:1003180010EBD37041F100015EEA430E08BF20EAFA
:10032800D37070BDC4F1200500FA05F24EEA020E42
:1003380020FA04F301FA05F243EA020321FA04F071
:1003480001F0004121FA04F220EA020000EBD37028
:100358005EEA430E08BF20EAD37070BD94F0000F28
:100368000FD101F00046400041EB010111F4801F5C
:1003780008BF013CF7D041EA060195F0000F18BF0D
:10038800704703F00046520043EB030313F4801F49
:1003980008BF013DF7D043EA0603704794EA0C0F03
:1003A8000CEA135518BF95EA0C0F0CD050EA410619
:1003B80018BF52EA4306D1D181EA030101F0004196
:1003C8004FF0000070BD50EA410606BF10461946BE
:1003D80052EA430619D094EA0C0F02D150EA0136CA
:1003E80013D195EA0C0F05D152EA03361CBF10460B
:1003F80019460AD181EA030101F0004141F0FE41AA
:1004080041F470014FF0000070BD41F0FE4141F42D
:10041800780170BD81F0004102E000BF83F0004325
:1004280030B54FEA41044FEA430594EA050F08BF87
:1004380090EA020F1FBF54EA000C55EA020C7FEA4B
:10044800645C7FEA655C00F0E2804FEA5454D4EBC8
:100458005555B8BF6D420CDD2C4480EA020281EA92
:10046800030382EA000083EA010180EA020281EACA
:100478000303362D88BF30BD11F0004F4FEA01311C
:100488004FF4801C4CEA113102D0404261EB41012B
:1004980013F0004F4FEA03334CEA133302D05242B1
:1004A80063EB430394EA050F00F0A780A4F101046D
:1004B800D5F1200E0DDB02FA0EFC22FA05F28018A7
:1004C80041F1000103FA0EF2801843FA05F359418D
:1004D8000EE0A5F120050EF1200E012A03FA0EFC0C
:1004E80028BF4CF0020C43FA05F3C01851EBE37136
:1004F80001F0004507D54FF0000EDCF1000C7EEB53
:1005080000006EEB0101B1F5801F1BD3B1F5001F90
:100518000CD349085FEA30004FEA3C0C04F10104AF
:100528004FEA445212F5800F80F09A80BCF1004FD8
:1005380008BF5FEA500C50F1000041EB045141EA5A
:10054800050130BD5FEA4C0C404141EB0101013C23
:1005580028BFB1F5801FE9D291F0000F04BF014612
:100568000020B1FA81F308BF2033A3F10B03B3F1E4
:1005780020020CDA0C3208DD02F1140CC2F10C0274
:1005880001FA0CF021FA02F10CE002F11402D8BFD2
:10059800C2F1200C01FA02F120FA0CFCDCBF41EA9E
:1005A8000C019040E41AA2BF01EB0451294330BD6D
:1005B8006FEA04041F3C1CDA0C340EDC04F114044A
:1005C800C4F1200220FA04F001FA02F340EA030021
:1005D80021FA04F345EA030130BDC4F10C04C4F167
:1005E800200220FA02F001FA04F340EA0300294647
:1005F80030BD21FA04F0294630BD94F0000F83F491
:10060800801306BF81F480110134013D4EE77FEA73
:10061800645C18BF7FEA655C29D094EA050F08BFBF
:1006280090EA020F05D054EA000C04BF19461046A0
:1006380030BD91EA030F1EBF0021002030BD5FEAE4
:10064800545C05D14000494128BF41F0004130BD0C
:1006580014F580043CBF01F5801130BD01F0004560
:1006680045F0FE4141F470014FF0000030BD7FEAD3
:10067800645C1ABF194610467FEA655C1CBF0B46CE
:10068800024650EA013406BF52EA033591EA030FE5
:1006980041F4002130BD00BF90F0000F04BF0021DD
:1006A800704730B54FF4806404F132044FF0000510
:1006B8004FF0000150E700BF90F0000F04BF002189
:1006C800704730B54FF4806404F1320410F00045EF
:1006D80048BF40424FF000013EE700BF42004FEAEA
:1006E800E2014FEA31014FEA02701FBF12F07F4367
:1006F80093F07F4F81F06051704732F07F4208BF1E
:10070800704793F07F4F04BF41F40021704730B524
:100718004FF4607401F0004521F000411CE700BF70
:1007280050EA010208BF704730B54FF000050AE0F3
:1007380050EA010208BF704730B511F0004502D5F4
:10074800404261EB41014FF4806404F132045FEAF6
:10075800915C3FF4D8AE4FF003025FEADC0C18BF9F
:1007680003325FEADC0C18BF033202EBDC02C2F191
:10077800200300FA03FC20FA02F001FA03FE40EA23
:100788000E0021FA02F11444BDE600BF4FF0FF3C11
:1007980006E000BF4FF0010C02E000BF4FF0010C73
:1007A8004DF804CD4FEA410C7FEA6C5C4FEA430CEC
:1007B80018BF7FEA6C5C1BD001B050EA410C0CBF3B
:1007C80052EA430C91EA030F02BF90EA020F00209D
:1007D800704710F1000F91EA030F58BF994208BF04
:1007E80090422CBFD8176FEAE37040F001007047C1
:1007F8004FEA410C7FEA6C5C02D150EA013C07D118
:100808004FEA430C7FEA6C5CD6D152EA033CD3D062
:100818005DF8040B704700BF8446104662468C465C
:100828001946634600E000BF01B5FFF7B7FF00288F
:1008380048BF10F1000F01BD4DF808EDFFF7F4FFB8
:100848000CBF012000205DF808FB00BF4DF808ED43
:10085800FFF7EAFF34BF012000205DF808FB00BF66
:100868004DF808EDFFF7E0FF94BF012000205DF888
:1008780008FB00BF4DF808EDFFF7CEFF94BF01203D
:1008880000205DF808FB00BF4DF808EDFFF7C4FF36
:1008980034BF012000205DF808FB00BF4FEA410289
:1008A800B2F1E04324BFB3F5001CDCF1FE5C0DD9C6
:1008B80001F0004C4FEAC0024CEA5070B2F1004F10
:1008C80040EB830008BF20F00100704711F0804F13
:1008D80021D113F13872BCBF01F00040704741F4D8
:1008E80080114FEA5252C2F11802C2F1200C10FADC
:1008F8000CF320FA02F018BF40F001004FEAC123C0
:100908004FEAD32303FA0CFC40EA0C0023FA02F363
:100918004FEA4303CCE77FEA625307D150EA013339
:100928001EBF4FF0FE4040F44000704701F0004009
:1009380040F0FE4040F40000704700BF53B94AB988
:10094800002908BF00281CBF4FF0FF314FF0FF30CF
:1009580000F06AB9ADF1080C6DE904CE00F006F8B4
:10096800DDF804E0DDE9022304B070472DE9F04723
:10097800089D0C46002B4ED194468C458646B2FA0B
:1009880082F262D94AB1C2F12003914020FA03F3FE
:100998000CFA02FC194300FA02FE4FEA1C471FFA40
:1009A8008CF6B1FBF7F44FEA1E4307FB141143EA38
:1009B800014304FB06F199420AD91CEB030304F135
:1009C800FF3080F01281994240F20F81023C63446B
:1009D800591A1FFA8EF3B1FBF7F007FB101143EA1F
:1009E800014300FB06F69E420AD91CEB030300F103
:1009F800FF3180F0FC809E4240F2F9806344023867
:100A08009B1B40EA044000211DB1D3400022C5E9E8
:100A18000032BDE8F0878B4205D90DB1C5E9000168
:100A280000210846F5E7B3FA83F1002946D1A3422D
:100A380002D39042C0F0F080861A64EB03030120D1
:100A4800002DE6D0C5E90063E3E7002A40F0908076
:100A5800A1EB0C044FEA1C481FFA8CF70121B4FBE8
:100A6800F8F64FEA1E4308FB164443EA044307FB23
:100A780006F0984208D91CEB030306F1FF3402D2B2
:100A8800984200F2CD8026461C1A1FFA8EF3B4FB5A
:100A9800F8F008FB104443EA044300FB07F79F42C1
:100AA80008D91CEB030300F1FF3402D29F4200F285
:100AB800B0802046DB1B40EA0640A5E7C1F12006CE
:100AC8008B4022FA06F71F4320FA06FC04FA01F3CA
:100AD80043EA0C03F44000FA01F8380C4FEA1349D2
:100AE800B4FBF0FE1FFA87FC00FB1E4449EA0444ED
:100AF8000EFB0CF9A14502FA01F20AD93C190EF1D4
:100B0800FF3A80F08480A14540F28180AEF1020E68
:100B18003C44A4EB09041FFA83F9B4FBF0F300FB8F
:100B2800134449EA044403FB0CFCA44507D93C19C7
:100B380003F1FF3067D2A44565D9023B3C4443EA40
:100B48000E40A0FB0293A4EB0C049C42CE469C46AC
:100B580051D34ED055B1B8EB0E0364EB0C0404FA34
:100B680006F6CB401E43CC40C5E90064002150E79F
:100B7800C2F1200320FA03F10CFA02FC24FA03F371
:100B880094400C434FEA1C4800FA02FE1FFA8CF707
:100B9800B3FBF8F008FB1031230C43EA014300FBD8
:100BA80007F1994208D91CEB030300F1FF362CD258
:100BB80099422AD9023863445B1AA4B2B3FBF8F10C
:100BC80008FB113344EA034401FB07F3A34208D9A5
:100BD8001CEB040401F1FF3613D2A34211D90239E8
:100BE8006444E41A41EA004139E70446F0E608465D
:100BF80006E7C845AED2B9EB020E63EB070C013825
:100C0800A8E73146EDE7034699E73046D4E7D646EC
:100C18007FE7634402384DE70646234608460FE758
:100C2800023E634430E700BF704700BF80B58AB01A
:100C380000AF07F11C0300221A605A609A603B1D3E
:100C480000221A605A609A60DA601A615A61314B60
:100C5800314A1A602F4B00225A602E4B00229A60AC
:100C68002C4B0022DA602B4B00221A61294B0422FC
:100C78005A61284B00221A76264B01225A76254BB8
:100C88000122DA61234B002283F82020214B002225
:100C98009A62204B0022DA621E4B002283F8302031
:100CA8001C4B00225A631B4B002283F8382019483A
:100CB80014F0FCF90346002B01D013F057FD06236E
:100CC800FB6100233B6200237B6207F11C0319468A
:100CD800104815F033FD0346002B01D013F046FDF4
:100CE8000E4B7B600623BB600023FB607F233B61C8
:100CF80004237B610023BB613B1D1946054814F0A2
:100D080031FF0346002B01D013F030FD00BF283718
:100D1800BD4680BDAC030020000004501000C01088
:100D280080B586B000AF3B4600221A605A609A60D0
:100D3800DA601A615A61264B264A1A60244B00224F
:100D48005A60234B00229A60214B0022DA60204B24
:100D580000221A611E4B04225A611D4B00221A768A
:100D68001B4B01225A761A4B0122DA61184B0022DA
:100D780083F82020164B002283F83020144B0022E1
:100D88005A63134B002283F83820114814F08EF967
:100D98000346002B01D013F0E9FC0F4B3B60062300
:100DA8007B600023BB607F23FB6004233B6100233F
:100DB8007B613B461946064814F0D4FE0346002BD7
:100DC80001D013F0D3FC00BF1837BD4680BD00BF6B
:100DD80010040020000104500800900C80B58CB06D
:100DE80000AF786007F11C0300221A605A609A600D
:100DF800DA601A617B681B683B4A934235D13B4BEA
:100E08001B680133394A1360384B1B68012B0BD11F
:100E1800374BDB6C364A43F40053D364344BDB6CFA
:100E280003F40053BB61BB69314BDB6C304A43F0C0
:100E38000403D3642E4BDB6C03F004037B617B69F2
:100E48000823FB610B233B6200237B6207F11C0331
:100E58001946284815F0B2FE01220121122015F08A
:100E6800F8FD122015F011FE39E07B681B68224A54
:100E7800934234D11D4B1B6801331C4A13601B4B32
:100E88001B68012B0BD11A4BDB6C194A43F4005336
:100E9800D364174BDB6C03F400533B613B69144B81
:100EA800DB6C134A43F00403D364114BDB6C03F08F
:100EB8000403FB60FB680423FB610B233B620023F4
:100EC8007B6207F11C0319460A4815F077FE0122D8
:100ED8000121122015F0BDFD122015F0D6FD00BF2E
:100EE8003037BD4680BD00BF0000045074040020A8
:100EF80000100240000800480001045080B588B086
:100F080000AF07F10C0300221A605A609A60DA6099
:100F18001A613F4BDB6C3E4A43F00403D3643C4BFD
:100F2800DB6C03F00403BB60BB68394BDB6C384AED
:100F380043F00103D364364BDB6C03F001037B60A1
:100F48007B68334BDB6C324A43F00203D364304B8B
:100F5800DB6C03F002033B603B68002249F67341F7
:100F68004FF0904015F0ECFF01221021294815F0B0
:100F7800E7FF00224FF43661264815F0E1FF002212
:100F880040F23F31244815F0DBFF49F67303FB605C
:100F980001233B6100237B610023BB6107F10C0344
:100FA80019464FF0904015F009FE4FF43763FB6087
:100FB80001233B6100237B610023BB6107F10C0324
:100FC8001946144815F0FAFD40F23F33FB6001233F
:100FD8003B6100237B610023BB6107F10C031946C9
:100FE8000D4815F0EBFD4FF48063FB6001233B6176
:100FF80000237B610323BB6107F10C0319464FF003
:10100800904015F0DBFD00BF2037BD4680BD00BF16
:1010180000100240000800480004004880B500AFF6
:1010280001224FF400414FF0904015F089FF00BFB6
:1010380080BD80B500AF00224FF400414FF09040D2
:1010480015F07EFF00BF80BD80B500AF01224FF4D0
:1010580080614FF0904015F073FF00BF80BD80B5F0
:1010680000AF00224FF480614FF0904015F068FF08
:1010780000BF80BD80B500AF00221021024815F0E6
:101088005FFF00BF80BD00BF0008004880B500AF0B
:1010980001221021024815F053FF00BF80BD00BF98
:1010A8000008004880B582B000AF0346FB71FFF727
:1010B800D6FFFFF7BEFFF91D4FF0FF3301220448AA
:1010C80017F019FBFFF7AAFF00BF0837BD4680BD20
:1010D800A404002080B582B000AF0346FB71FFF77F
:1010E800B3FFFFF7A6FFF91D4FF0FF3301220448B5
:1010F80017F001FBFFF792FF00BF0837BD4680BD20
:10110800A404002080B582B000AF7860FFF7B2FF7A
:10111800322013F063FDFFF7B9FF322013F05EFDB4
:101128007B685B781846FFF7BDFF822013F056FDF9
:101138007B689B781846FFF7B5FF822013F04EFDB9
:101148007B685B791846FFF7ADFF7B68DB7918464B
:10115800FFF7C0FF7B681B791846FFF7A3FF6420E1
:1011680013F03CFD00BF0837BD4680BD80B582B096
:1011780000AF78607B685B7A1846FFF793FF7B685F
:101188001B781846FFF7A6FF7B681B7B1846FFF7FE
:10119800A1FF7B681B781846FFF79CFF7B689B7B49
:1011A8001846FFF797FF7B689B7A1846FFF77AFF88
:1011B8007B681B781846FFF78DFF7B685B7B1846BA
:1011C800FFF788FF7B681B781846FFF783FF7B686B
:1011D800DB7B1846FFF77EFF7B68DB7A1846FFF754
:1011E80061FF00BF0837BD4680BD000080B586B0EE
:1011F80000AF3B600346FB710B46BB7113467B7126
:1012080000237B6100233B613B6800221A743B6822
:101218003F225A743B681F229A743B680022DA7492
:101228003B6800221A753B68DA7C3B681B7C53409C
:10123800DBB2DB005AB23B685B7C5BB203F038037D
:101248005BB253405BB2DAB23B68DA743B681B7D31
:101258001A463B685B7C03F0070353405B015AB2B4
:101268003B689B7C5BB253405BB2DAB23B681A7551
:101278003B68DB7C3B733B681B7D7B730023FB7304
:101288000023BB73FA7BFB795340DBB2DB005AB215
:1012980097F9063003F038035BB253405BB2FB7337
:1012A800BA7BBB7903F0070353405B015AB297F945
:1012B800053053405BB2BB73FB7B3B72BB7B7B72DD
:1012C800FFF7C2FEFFF7B5FE3B685B7B3B61C5E0FD
:1012D8003B681B7B7B61B7E03B681B7B02331A468C
:1012E8007B69934216D13B685B7B01331A463B69A5
:1012F80093420FD33B68DB7B01331A463B69934229
:1013080008D207F10C014FF0FF3302225A4817F0B8
:10131800F2F996E03B681B7B0A331A467B699342D5
:1013280016D13B685B7B01331A463B6993420FD366
:101338003B68DB7B01331A463B69934208D207F1CD
:101348000C014FF0FF3302224B4817F0D4F978E034
:101358003B685B7B02331A463B69934216D13B6874
:101368001B7B03331A467B69934206D03B681B7B81
:1013780009331A467B69934208D107F10C014FF0F3
:10138800FF3302223C4817F0B6F95AE03B685B7B12
:1013980003331A463B69934216D13B681B7B0433DF
:1013A8001A467B69934206D03B681B7B08331A4672
:1013B8007B69934208D107F10C014FF0FF330222F9
:1013C8002D4817F098F93CE03B685B7B04331A46DC
:1013D8003B69934216D13B681B7B05331A467B69F0
:1013E800934206D03B681B7B07331A467B699342BE
:1013F80008D107F10C014FF0FF3302221E4817F005
:101408007AF91EE03B685B7B05331A463B699342D9
:101418000FD13B681B7B06331A467B69934208D180
:1014280007F10C014FF0FF330222134817F063F95C
:1014380007E007F108014FF0FF3302220E4817F0CA
:101448005AF97B6901337B613B689B7B1A467B6950
:1014580093427FF641AF3B6901333B613B68DB7BDD
:101468001A463B6993427FF633AFFFF7D7FD00BFBB
:101478001837BD4680BD00BFA404002080B586B0E3
:1014880000AF3B600346FB710B46BB7113467B7193
:1014980000237B6100233B613B6800221A743B6890
:1014A8003F225A743B681F229A743B680022DA7400
:1014B8003B6800221A753B68DA7C3B681B7C53400A
:1014C800DBB2DB005AB23B685B7C5BB203F03803EB
:1014D8005BB253405BB2DAB23B68DA743B681B7D9F
:1014E8001A463B685B7C03F0070353405B015AB222
:1014F8003B689B7C5BB253405BB2DAB23B681A75BF
:101508003B68DB7C3B733B681B7D7B730023FB7371
:101518000023BB73FA7BFB795340DBB2DB005AB282
:1015280097F9063003F038035BB253405BB2FB73A4
:10153800BA7BBB7903F0070353405B015AB297F9B2
:10154800053053405BB2BB73FB7B3B72BB7B7B724A
:10155800FFF77AFDFFF76DFD3B685B7B3B6190E031
:101568003B681B7B7B6182E03B681B7B01331A462F
:101578007B69934216D13B685B7B01331A463B6912
:1015880093420FD33B68DB7B01331A463B69934296
:1015980008D207F10C014FF0FF3302223F4817F041
:1015A800AAF861E03B681B7B01331A467B699342CA
:1015B80016D33B689B7B01331A467B6993420FD253
:1015C8003B685B7B08331A463B69934208D107F1B5
:1015D8000C014FF0FF330222304817F08CF843E03B
:1015E8003B681B7B01331A467B69934216D33B68E1
:1015F8009B7B01331A467B6993420FD23B685B7B26
:1016080001331A463B69934208D107F10C014FF0A8
:10161800FF330222214817F06EF825E03B681B7B58
:1016280001331A467B69934216D33B689B7B01338F
:101638001A467B6993420FD23B68DB7B013B1A4613
:101648003B69934208D107F10C014FF0FF330222A6
:10165800124817F050F807E007F108014FF0FF3380
:1016680002220E4817F047F87B6901337B613B681B
:101678009B7B1A467B6993427FF676AF3B690133C1
:101688003B613B68DB7B1A463B6993427FF668AF58
:10169800FFF7C4FC00BF1837BD4680BDA404002076
:1016A80080B586B000AF3B600346FB710B46BB714B
:1016B80013467B7100237B6100233B613B6800225A
:1016C8001A743B683F225A743B681F229A743B681D
:1016D8000022DA743B6800221A753B68DA7C3B68A2
:1016E8001B7C5340DBB2DB005AB23B685B7C5BB2CD
:1016F80003F038035BB253405BB2DAB23B68DA748A
:101708003B681B7D1A463B685B7C03F0070353402C
:101718005B015AB23B689B7C5BB253405BB2DAB266
:101728003B681A753B68DB7C3B733B681B7D7B73AE
:101738000023FB730023BB73FA7BFB795340DBB2B6
:10174800DB005AB297F9063003F038035BB2534016
:101758005BB2FB73BA7BBB7903F0070353405B01B1
:101768005AB297F9053053405BB2BB73FB7B3B72AF
:10177800BB7B7B72FFF768FCFFF75BFC3B685B7B1E
:101788003B61F5E03B681B7B7B61E7E03B681B7BCB
:1017980001331A467B69934216D13B685B7B013360
:1017A8001A463B6993420FD33B685B7B0E331A465C
:1017B8003B69934208D207F10C014FF0FF33022234
:1017C800724816F098FFC6E03B681B7B0A331A463E
:1017D8007B69934216D13B685B7B01331A463B69B0
:1017E80093420FD33B685B7B0E331A463B699342A7
:1017F80008D207F10C014FF0FF330222634816F0BC
:101808007AFFA8E03B681B7B02331A467B69934248
:101818000FD13B685B7B02331A463B69934208D180
:1018280007F10C014FF0FF330222584816F063FF0E
:1018380091E03B681B7B03331A467B6993420FD1C7
:101848003B685B7B04331A463B69934208D107F136
:101858000C014FF0FF3302224C4816F04CFF7AE09F
:101868003B681B7B04331A467B6993420FD13B6864
:101878005B7B06331A463B69934208D107F10C019A
:101888004FF0FF330222414816F035FF63E03B6812
:101898001B7B05331A467B6993420FD13B685B7B00
:1018A80008331A463B69934208D107F10C014FF0FF
:1018B800FF330222354816F01EFF4CE03B681B7BC5
:1018C80006331A467B6993420FD13B685B7B0A3328
:1018D8001A463B69934208D107F10C014FF0FF33D8
:1018E80002222A4816F007FF35E03B681B7B0733C6
:1018F8001A467B6993420FD13B685B7B0C331A46CF
:101908003B69934208D107F10C014FF0FF330222E3
:101918001E4816F0F0FE1EE03B681B7B08331A4693
:101928007B6993420FD13B685B7B0E331A463B6958
:10193800934208D107F10C014FF0FF3302221348FC
:1019480016F0D9FE07E007F108014FF0FF33022235
:101958000E4816F0D0FE7B6901337B613B689B7BA8
:101968001A467B6993427FF611AF3B6901333B61AD
:101978003B68DB7B1A463B6993427FF603AFFFF770
:101988004DFB00BF1837BD4680BD00BFA404002032
:1019980080B586B000AF3B600346FB710B46BB7158
:1019A80013467B7100237B6100233B613B68002267
:1019B8001A743B683F225A743B681F229A743B682A
:1019C8000022DA743B6800221A753B68DA7C3B68AF
:1019D8001B7C5340DBB2DB005AB23B685B7C5BB2DA
:1019E80003F038035BB253405BB2DAB23B68DA7497
:1019F8003B681B7D1A463B685B7C03F0070353403A
:101A08005B015AB23B689B7C5BB253405BB2DAB273
:101A18003B681A753B68DB7C3B733B681B7D7B73BB
:101A28000023FB730023BB73FA7BFB795340DBB2C3
:101A3800DB005AB297F9063003F038035BB2534023
:101A48005BB2FB73BA7BBB7903F0070353405B01BE
:101A58005AB297F9053053405BB2BB73FB7B3B72BC
:101A6800BB7B7B72FFF7F0FAFFF7E3FA3B685B7B1F
:101A78003B61ADE03B681B7B7B619FE03B681B7B68
:101A880001331A467B69934216D13B685B7B01336D
:101A98001A463B6993420FD33B68DB7B033B1A46EC
:101AA8003B69934208D207F10C014FF0FF33022241
:101AB8004E4816F020FE7EE03B689B7B1A467B6909
:101AC800934216D13B685B7B01331A463B699342CC
:101AD8000FD33B68DB7B033B1A463B69934208D232
:101AE80007F10C014FF0FF330222404816F003FEC5
:101AF80061E03B681B7B03331A467B69934216D32C
:101B08003B689B7B033B1A467B6993420FD23B6839
:101B1800DB7B013B1A463B69934208D107F10C0174
:101B28004FF0FF330222314816F0E5FD43E03B68F1
:101B38001B7B02331A467B69934206D03B689B7B2A
:101B4800013B1A467B6993420FD13B68DB7B033B21
:101B58001A463B69934208D107F10C014FF0FF3355
:101B68000222224816F0C7FD25E03B681B7B0333A1
:101B78001A467B69934206D03B689B7B023B1A4618
:101B88007B6993420FD13B68DB7B023B1A463B697A
:101B9800934208D107F10C014FF0FF33022213489A
:101BA80016F0A9FD07E007F108014FF0FF33022204
:101BB8000E4816F0A0FD7B6901337B613B689B7B77
:101BC8001A467B6993427FF659AF3B6901333B6103
:101BD8003B68DB7B1A463B6993427FF64BAFFFF7C6
:101BE8001DFA00BF1837BD4680BD00BFA404002001
:101BF80080B586B000AF3B600346FB710B46BB71F6
:101C080013467B7100237B6100233B613B68002204
:101C18001A743B683F225A743B681F229A743B68C7
:101C28000022DA743B6800221A753B68DA7C3B684C
:101C38001B7C5340DBB2DB005AB23B685B7C5BB277
:101C480003F038035BB253405BB2DAB23B68DA7434
:101C58003B681B7D1A463B685B7C03F007035340D7
:101C68005B015AB23B689B7C5BB253405BB2DAB211
:101C78003B681A753B68DB7C3B733B681B7D7B7359
:101C88000023FB730023BB73FA7BFB795340DBB261
:101C9800DB005AB297F9063003F038035BB25340C1
:101CA8005BB2FB73BA7BBB7903F0070353405B015C
:101CB8005AB297F9053053405BB2BB73FB7B3B725A
:101CC800BB7B7B72FFF7C0F9FFF7B3F93B685B7B1F
:101CD8003B61F6E03B681B7B7B61E7E03B681B7B75
:101CE80002331A467B69934206D03B681B7B0A3352
:101CF8001A467B69934216D13B685B7B0D331A46C3
:101D08003B69934206D03B685B7B0E331A463B69BE
:101D1800934208D107F10C014FF0FF3302226F48BC
:101D280016F0E9FCBFE03B681B7B03331A467B696E
:101D3800934206D03B681B7B09331A467B69934262
:101D48001DD13B685B7B09331A463B6993420DD032
:101D58003B685B7B0A331A463B69934206D03B6873
:101D68005B7B0B331A463B69934208D107F10C01A0
:101D78004FF0FF330222594816F0BDFC93E03B6850
:101D88001B7B04331A467B69934206D03B681B7B56
:101D980008331A467B6993421DD13B685B7B043349
:101DA8001A463B6993420DD03B685B7B05331A4664
:101DB8003B69934206D03B685B7B07331A463B6915
:101DC800934208D107F10C014FF0FF330222434838
:101DD80016F091FC67E03B681B7B05331A467B696C
:101DE800934206D03B681B7B07331A467B699342B4
:101DF80016D13B685B7B02331A463B69934206D097
:101E08003B685B7B03331A463B69934208D107F171
:101E18000C014FF0FF330222304816F06CFC42E010
:101E28003B681B7B06331A467B69934215D13B6896
:101E38005B7B1A463B69934206D03B685B7B013368
:101E48001A463B69934208D107F10C014FF0FF3362
:101E58000222224816F04FFC25E03B681B7B053325
:101E68001A467B69934216D33B681B7B08331A4694
:101E78007B6993420FD83B685B7B07331A463B6903
:101E8800934208D107F10C014FF0FF3302221348A7
:101E980016F031FC07E007F108014FF0FF3302228A
:101EA8000E4816F028FC7B6901337B613B689B7BFD
:101EB80001331A467B699342FFF410AF3B69013343
:101EC8003B613B68DB7B1A463B699342FFF402AFF8
:101ED800FFF7A4F800BF1837BD4680BDA404002052
:101EE80080B586B000AF3B600346FB710B46BB7103
:101EF80013467B7100237B6100233B613B68002212
:101F08001A743B683F225A743B681F229A743B68D4
:101F18000022DA743B6800221A753B68DA7C3B6859
:101F28001B7C5340DBB2DB005AB23B685B7C5BB284
:101F380003F038035BB253405BB2DAB23B68DA7441
:101F48003B681B7D1A463B685B7C03F007035340E4
:101F58005B015AB23B689B7C5BB253405BB2DAB21E
:101F68003B681A753B68DB7C3B733B681B7D7B7366
:101F78000023FB730023BB73FA7BFB795340DBB26E
:101F8800DB005AB297F9063003F038035BB25340CE
:101F98005BB2FB73BA7BBB7903F0070353405B0169
:101FA8005AB297F9053053405BB2BB73FB7B3B7267
:101FB800BB7B7B72FFF748F8FFF73BF83B685B7B1E
:101FC8003B61F3E03B681B7B7B61E4E03B681B7B88
:101FD80002331A467B6993420ED13B68DB7B1A4673
:101FE8003B69934208D207F10C014FF0FF330222FC
:101FF800754816F080FBCBE03B681B7B03331A4621
:102008007B69934238D33B681B7B06331A467B694E
:10201800934231D83B685B7B1A463B69934222D096
:102028003B685B7B01331A463B6993421BD03B6894
:102038005B7B07331A463B69934214D03B685B7B52
:1020480008331A463B6993420DD03B685B7B0D33DE
:102058001A463B69934206D03B685B7B0E331A46AF
:102068003B69934208D107F10C014FF0FF3302227C
:10207800554816F040FB8BE03B681B7B07331A463C
:102088007B69934224D13B685B7B01331A463B69E9
:10209800934214D03B685B7B07331A463B699342F3
:1020A8000DD03B685B7B09331A463B69934206D0E7
:1020B8003B685B7B0E331A463B69934208D107F1B4
:1020C8000C014FF0FF3302223F4816F014FB5FE08B
:1020D8003B681B7B08331A467B69934224D13B68D3
:1020E8005B7B02331A463B69934214D03B685B7BA7
:1020F80006331A463B6993420DD03B685B7B0A3333
:102108001A463B69934206D03B685B7B0D331A46FF
:102118003B69934208D107F10C014FF0FF330222CB
:10212800294816F0E8FA33E03B681B7B09331A4666
:102138007B69934224D13B685B7B03331A463B6936
:10214800934214D03B685B7B04331A463B69934245
:102158000DD03B685B7B0B331A463B69934206D034
:102168003B685B7B0C331A463B69934208D107F105
:102178000C014FF0FF330222134816F0BCFA07E0B7
:1021880007F108014FF0FF3302220F4816F0B3FAA7
:102198007B6901337B613B689B7B01331A467B6912
:1021A8009342FFF413AF3B6901333B613B68DB7B30
:1021B8001A463B699342FFF405AFFEF72FFF00BFB5
:1021C8001837BD4680BD00BFA404002080B586B086
:1021D80000AF3B600346FB710B46BB7113467B7136
:1021E80000237B6100233B613B6800221A743B6833
:1021F8003F225A743B681F229A743B680022DA74A3
:102208003B6800221A753B68DA7C3B681B7C5340AC
:10221800DBB2DB005AB23B685B7C5BB203F038038D
:102228005BB253405BB2DAB23B68DA743B681B7D41
:102238001A463B685B7C03F0070353405B015AB2C4
:102248003B689B7C5BB253405BB2DAB23B681A7561
:102258003B68DB7C3B733B681B7D7B730023FB7314
:102268000023BB73FA7BFB795340DBB2DB005AB225
:1022780097F9063003F038035BB253405BB2FB7347
:10228800BA7BBB7903F0070353405B015AB297F955
:10229800053053405BB2BB73FB7B3B72BB7B7B72ED
:1022A800FEF7D2FEFEF7C5FE3B685B7B3B61D3E0E1
:1022B8003B681B7B7B61C4E03B681B7B02331A468F
:1022C8007B69934216D13B685B7B05331A463B69B1
:1022D80093420FD33B685B7B07331A463B699342B3
:1022E80008D807F10C014FF0FF330222614816F0BD
:1022F80002FAA3E03B681B7B07331A467B699342CB
:102308001CD33B681B7B0A331A467B69934215D85A
:102318003B685B7B1A463B69934206D03B685B7B14
:102328000C331A463B69934208D107F10C014FF070
:10233800FF3302224F4816F0DEF97FE03B681B7B33
:1023480003331A467B69934216D13B685B7B04339F
:102358001A463B69934206D03B685B7B08331A46B2
:102368003B69934208D107F10C014FF0FF33022279
:10237800404816F0C0F961E03B681B7B04331A46FD
:102388007B69934216D13B685B7B03331A463B69F2
:10239800934206D03B685B7B09331A463B699342FC
:1023A80008D107F10C014FF0FF330222314816F033
:1023B800A2F943E03B681B7B05331A467B699342CD
:1023C80016D13B685B7B02331A463B69934206D0C1
:1023D8003B685B7B0A331A463B69934208D107F195
:1023E8000C014FF0FF330222224816F084F925E051
:1023F8003B681B7B06331A467B69934216D13B68C0
:102408005B7B01331A463B69934206D03B685B7B92
:102418000B331A463B69934208D107F10C014FF080
:10242800FF330222134816F066F907E007F10801A6
:102438004FF0FF3302220F4816F05DF97B69013334
:102448007B613B689B7B01331A467B699342FFF4AF
:1024580033AF3B6901333B613B68DB7B1A463B6921
:102468009342FFF425AFFEF7D9FD00BF1837BD46EC
:1024780080BD00BFA404002080B586B000AF3B60DB
:102488000346FB710B46BB7113467B7100237B61CE
:1024980000233B613B6800221A743B683F225A7450
:1024A8003B681F229A743B680022DA743B6800225A
:1024B8001A753B68DA7C3B681B7C5340DBB2DB0057
:1024C8005AB23B685B7C5BB203F038035BB25340A3
:1024D8005BB2DAB23B68DA743B681B7D1A463B682C
:1024E8005B7C03F0070353405B015AB23B689B7C5B
:1024F8005BB253405BB2DAB23B681A753B68DB7C6F
:102508003B733B681B7D7B730023FB730023BB730A
:10251800FA7BFB795340DBB2DB005AB297F90630FD
:1025280003F038035BB253405BB2FB73BA7BBB79F1
:1025380003F0070353405B015AB297F90530534043
:102548005BB2BB73FB7B3B72BB7B7B72FEF77CFD94
:10255800FEF76FFD3B685B7B3B6138E13B681B7BAB
:102568007B6129E13B681B7B02331A467B699342F6
:102578000FD13B685B7B0F331A463B69934208D205
:1025880007F10C014FF0FF330222974816F0B3F819
:102598000FE13B681B7B03331A467B69934215D1D5
:1025A8003B685B7B1A463B69934206D03B685B7B82
:1025B8000E331A463B69934208D107F10C014FF0DC
:1025C800FF330222884816F096F8F2E03B681B7B3E
:1025D80004331A467B69934223D13B685B7B1A46D6
:1025E8003B69934214D03B685B7B01331A463B69D5
:1025F80093420DD03B685B7B0D331A463B6993428F
:1026080006D03B685B7B0E331A463B69934208D180
:1026180007F10C014FF0FF330222734816F06BF8F4
:10262800C7E03B681B7B05331A467B69934224D17C
:102638003B685B7B01331A463B69934214D03B6885
:102648005B7B02331A463B6993420DD03B685B7B48
:102658000C331A463B69934206D03B685B7B0D33CB
:102668001A463B69934208D107F10C014FF0FF333A
:1026780002225D4816F03FF89BE03B681B7B06335F
:102688001A467B69934224D13B685B7B02331A4626
:102698003B69934214D03B685B7B03331A463B6922
:1026A80093420DD03B685B7B0B331A463B699342E0
:1026B80006D03B685B7B0C331A463B69934208D1D2
:1026C80007F10C014FF0FF330222474816F013F8C8
:1026D8006FE03B681B7B07331A467B69934224D122
:1026E8003B685B7B03331A463B69934214D03B68D3
:1026F8005B7B04331A463B6993420DD03B685B7B96
:102708000A331A463B69934206D03B685B7B0B331E
:102718001A463B69934208D107F10C014FF0FF3389
:102728000222314815F0E7FF43E03B681B7B083382
:102738001A467B69934216D13B685B7B04331A4681
:102748003B6993420FD33B685B7B0A331A463B696C
:10275800934208D807F10C014FF0FF3302222248B8
:1027680015F0C9FF25E03B681B7B09331A467B69D6
:10277800934216D13B685B7B04331A463B6993420C
:102788000FD93B685B7B0A331A463B69934208D2F0
:1027980007F10C014FF0FF330222134815F0ABFF8D
:1027A80007E007F108014FF0FF3302220E4815F049
:1027B800A2FF7B6901337B613B689B7B01331A462F
:1027C8007B699342FFF4CEAE3B6901333B613B68C2
:1027D800DB7B1A463B699342FFF4C0AEFEF71EFC52
:1027E80000BF1837BD4680BDA404002080B586B060
:1027F80000AF3B600346FB710B46BB7113467B7110
:1028080000237B6100233B613B6800221A743B680C
:102818003F225A743B681F229A743B680022DA747C
:102828003B6800221A753B68DA7C3B681B7C534086
:10283800DBB2DB005AB23B685B7C5BB203F0380367
:102848005BB253405BB2DAB23B68DA743B681B7D1B
:102858001A463B685B7C03F0070353405B015AB29E
:102868003B689B7C5BB253405BB2DAB23B681A753B
:102878003B68DB7C3B733B681B7D7B730023FB73EE
:102888000023BB73FA7BFB795340DBB2DB005AB2FF
:1028980097F9063003F038035BB253405BB2FB7321
:1028A800BA7BBB7903F0070353405B015AB297F92F
:1028B800053053405BB2BB73FB7B3B72BB7B7B72C7
:1028C800FEF7C2FBFEF7B5FB3B685B7B3B61EAE0CA
:1028D8003B681B7B7B61DBE03B681B7B02331A4652
:1028E8007B69934216D13B685B7B03331A463B698D
:1028F80093420FD33B685B7B0C331A463B69934288
:1029080008D807F10C014FF0FF3302226C4815F08C
:10291800F2FEBAE03B681B7B05331A467B6993429B
:1029280015D33B681B7B0A331A467B6993420ED842
:102938003B685B7B1A463B69934208D107F10C015F
:102948004FF0FF3302225E4815F0D5FE9DE03B684C
:102958001B7B05331A467B69934216D33B681B7B66
:102968000A331A467B6993420FD83B685B7B063370
:102978001A463B69934208D107F10C014FF0FF3327
:1029880002224F4815F0B7FE7FE03B681B7B0533FA
:102998001A467B69934216D33B681B7B0A331A4657
:1029A8007B6993420FD83B685B7B0E331A463B69C1
:1029B800934208D107F10C014FF0FF33022240483F
:1029C80015F099FE61E03B681B7B0A331A467B6968
:1029D800934216D13B685B7B06331A463B699342A8
:1029E8000FD33B685B7B0E331A463B69934208D88A
:1029F80007F10C014FF0FF330222314815F07BFE3E
:102A080043E03B681B7B03331A467B69934216D12C
:102A18003B685B7B02331A463B69934206D03B68AE
:102A28005B7B0D331A463B69934208D107F10C01D1
:102A38004FF0FF330222224815F05DFE25E03B6887
:102A48001B7B04331A467B69934216D13B685B7B38
:102A580001331A463B69934206D03B685B7B0E33D1
:102A68001A463B69934208D107F10C014FF0FF3336
:102A78000222134815F03FFE07E007F108014FF066
:102A8800FF3302220E4815F036FE7B6901337B6165
:102A98003B689B7B01331A467B699342FFF41CAF6A
:102AA8003B6901333B613B68DB7B1A463B699342D8
:102AB800FFF40EAFFEF7B2FA00BF1837BD4680BD6F
:102AC800A404002080B586B000AF3B600346FB71CC
:102AD8000B46BB7113467B7100237B6100233B616E
:102AE8003B6800221A743B683F225A743B681F22D5
:102AF8009A743B680022DA743B6800221A753B68B6
:102B0800DA7C3B681B7C5340DBB2DB005AB23B6883
:102B18005B7C5BB203F038035BB253405BB2DAB262
:102B28003B68DA743B681B7D1A463B685B7C03F0A4
:102B3800070353405B015AB23B689B7C5BB253402E
:102B48005BB2DAB23B681A753B68DB7C3B733B6867
:102B58001B7D7B730023FB730023BB73FA7BFB791C
:102B68005340DBB2DB005AB297F9063003F0380362
:102B78005BB253405BB2FB73BA7BBB7903F00703CC
:102B880053405B015AB297F9053053405BB2BB73AF
:102B9800FB7B3B72BB7B7B72FEF756FAFEF749FA6A
:102BA8003B685B7B3B6170E03B681B7B7B6162E061
:102BB8003B681B7B06331A467B69934215D13B68F9
:102BC8005B7B1A463B6993420FD33B685B7B0E33B2
:102BD8001A463B69934208D807F10C014FF0FF33BE
:102BE8000222304815F087FD42E03B681B7B043326
:102BF8001A467B69934215D33B681B7B08331A46F8
:102C08007B6993420ED83B685B7B1A463B699342CB
:102C180008D107F10C014FF0FF330222214815F0CB
:102C28006AFD25E03B681B7B04331A467B699342A7
:102C380016D33B681B7B08331A467B6993420FD82F
:102C48003B685B7B0E331A463B69934208D107F118
:102C58000C014FF0FF330222124815F04CFD07E03B
:102C680007F108014FF0FF3302220E4815F043FD2B
:102C78007B6901337B613B689B7B01331A467B6927
:102C8800934295D33B6901333B613B68DB7B1A4632
:102C98003B69934288D3FEF7C1F900BF1837BD4698
:102CA80080BD00BFA404002080B586B000AF3B60A3
:102CB8000346FB710B46BB7113467B7100237B6196
:102CC80000233B613B6800221A743B683F225A7418
:102CD8003B681F229A743B680022DA743B68002222
:102CE8001A753B68DA7C3B681B7C5340DBB2DB001F
:102CF8005AB23B685B7C5BB203F038035BB253406B
:102D08005BB2DAB23B68DA743B681B7D1A463B68F3
:102D18005B7C03F0070353405B015AB23B689B7C22
:102D28005BB253405BB2DAB23B681A753B68DB7C36
:102D38003B733B681B7D7B730023FB730023BB73D2
:102D4800FA7BFB795340DBB2DB005AB297F90630C5
:102D580003F038035BB253405BB2FB73BA7BBB79B9
:102D680003F0070353405B015AB297F9053053400B
:102D78005BB2BB73FB7B3B72BB7B7B72FEF764F978
:102D8800FEF757F93B685B7B3B61A6E03B681B7B22
:102D98007B6197E03B681B7B08331A467B6993424B
:102DA80015D13B685B7B1A463B6993420FD33B685E
:102DB8005B7B0D331A463B69934208D807F10C0137
:102DC8004FF0FF3302224B4815F095FC77E03B6843
:102DD8001B7B05331A467B69934215D33B681B7BE3
:102DE8000A331A467B6993420ED83B685B7B1A46C6
:102DF8003B69934208D107F10C014FF0FF330222DF
:102E08003C4815F078FC5AE03B681B7B04331A46B3
:102E18007B69934216D33B681B7B07331A467B6951
:102E280093420FD83B685B7B0E331A463B6993424B
:102E380008D107F10C014FF0FF3302222D4815F09D
:102E48005AFC3CE03B681B7B02331A467B69934281
:102E580016D13B685B7B09331A463B6993420FD313
:102E68003B685B7B0C331A463B69934208D807F1F1
:102E78000C014FF0FF3302221E4815F03CFC1EE007
:102E88003B681B7B03331A467B6993420FD13B682F
:102E98005B7B0D331A463B69934208D107F10C015D
:102EA8004FF0FF330222134815F025FC07E007F125
:102EB80008014FF0FF3302220E4815F01CFC7B6915
:102EC80001337B613B689B7B01331A467B699342E4
:102ED800FFF460AF3B6901333B613B68DB7B1A461B
:102EE8003B699342FFF452AFFEF798F800BF1837DA
:102EF800BD4680BDA404002080B586B000AF3B600D
:102F08000346FB710B46BB7113467B7100237B6143
:102F180000233B613B6800221A743B683F225A74C5
:102F28003B681F229A743B680022DA743B680022CF
:102F38001A753B68DA7C3B681B7C5340DBB2DB00CC
:102F48005AB23B685B7C5BB203F038035BB2534018
:102F58005BB2DAB23B68DA743B681B7D1A463B68A1
:102F68005B7C03F0070353405B015AB23B689B7CD0
:102F78005BB253405BB2DAB23B681A753B68DB7CE4
:102F88003B733B681B7D7B730023FB730023BB7380
:102F9800FA7BFB795340DBB2DB005AB297F9063073
:102FA80003F038035BB253405BB2FB73BA7BBB7967
:102FB80003F0070353405B015AB297F905305340B9
:102FC8005BB2BB73FB7B3B72BB7B7B72FEF73CF84F
:102FD800FEF72FF83B685B7B3B6141E13B681B7B5D
:102FE8007B6132E13B681B7B03331A467B69934262
:102FF80015D13B685B7B1A463B6993420FD33B680C
:103008005B7B0E331A463B69934208D807F10C01E3
:103018004FF0FF330222994815F06DFB12E13B682F
:103028001B7B02331A467B69934206D33B681B7BA2
:1030380004331A467B6993420DD93B681B7B0833DE
:103048001A467B69934215D33B681B7B0A331A46A1
:103058007B6993420ED83B685B7B1A463B69934277
:1030680008D107F10C014FF0FF330222834815F015
:1030780042FBE7E03B681B7B02331A467B699342BD
:1030880006D33B681B7B04331A467B6993420DD9F0
:103098003B681B7B08331A467B69934216D33B680F
:1030A8001B7B0A331A467B6993420FD83B685B7BCC
:1030B8000E331A463B69934208D107F10C014FF0D1
:1030C800FF3302226D4815F016FBBBE03B681B7B03
:1030D80004331A467B69934216D13B685B7B0633FF
:1030E8001A463B69934206D03B685B7B08331A4615
:1030F8003B69934208D107F10C014FF0FF330222DC
:103108005E4815F0F8FA9DE03B681B7B05331A46CC
:103118007B69934216D13B685B7B05331A463B6952
:10312800934206D03B685B7B09331A463B6993425E
:1031380008D107F10C014FF0FF3302224F4815F078
:10314800DAFA7FE03B681B7B06331A467B699342B9
:1031580016D13B685B7B04331A463B69934206D021
:103168003B685B7B0A331A463B69934208D107F1F7
:103178000C014FF0FF330222404815F0BCFA61E021
:103188003B681B7B07331A467B69934216D13B6821
:103198005B7B03331A463B69934206D03B685B7BF3
:1031A8000B331A463B69934208D107F10C014FF0E3
:1031B800FF330222314815F09EFA43E03B681B7B3F
:1031C80008331A467B69934216D13B685B7B02330E
:1031D8001A463B69934206D03B685B7B0C331A4620
:1031E8003B69934208D107F10C014FF0FF330222EB
:1031F800224815F080FA25E03B681B7B09331A4604
:103208007B69934216D13B685B7B01331A463B6965
:10321800934206D03B685B7B0D331A463B69934269
:1032280008D107F10C014FF0FF330222134815F0C3
:1032380062FA07E007F108014FF0FF3302220F4856
:1032480015F059FA7B6901337B613B689B7B01333D
:103258001A467B699342FFF4C5AE3B6901333B6173
:103268003B68DB7B1A463B699342FFF4B7AEFDF738
:10327800D5FE00BF1837BD4680BD00BFA40400209E
:1032880080B586B000AF3B600346FB710B46BB714F
:1032980013467B7100237B6100233B613B6800225E
:1032A8001A743B683F225A743B681F229A743B6821
:1032B8000022DA743B6800221A753B68DA7C3B68A6
:1032C8001B7C5340DBB2DB005AB23B685B7C5BB2D1
:1032D80003F038035BB253405BB2DAB23B68DA748E
:1032E8003B681B7D1A463B685B7C03F00703534031
:1032F8005B015AB23B689B7C5BB253405BB2DAB26B
:103308003B681A753B68DB7C3B733B681B7D7B73B2
:103318000023FB730023BB73FA7BFB795340DBB2BA
:10332800DB005AB297F9063003F038035BB253401A
:103338005BB2FB73BA7BBB7903F0070353405B01B5
:103348005AB297F9053053405BB2BB73FB7B3B72B3
:10335800BB7B7B72FDF778FEFDF76BFE3B685B7B02
:103368003B618FE03B681B7B7B6180E03B681B7B9C
:1033780003331A467B69934215D13B685B7B1A4637
:103388003B6993420FD33B685B7B0E331A463B691C
:10339800934208D807F10C014FF0FF33022240484E
:1033A80015F0A9F960E03B681B7B02331A467B697C
:1033B800934216D33B681B7B0A331A467B699342B8
:1033C8000FD83B685B7B0E331A463B69934208D1A2
:1033D80007F10C014FF0FF330222314815F08BF949
:1033E80042E03B681B7B02331A467B69934215D344
:1033F8003B681B7B04331A467B6993420ED83B68B3
:103408005B7B1A463B69934208D107F10C014FF0E8
:10341800FF330222224815F06EF925E03B681B7B3A
:103428000A331A467B69934216D13B685B7B0B33A0
:103438001A463B6993420FD33B685B7B0E331A46AF
:103448003B69934208D807F10C014FF0FF33022281
:10345800134815F050F907E007F108014FF0FF3362
:1034680002220F4815F047F97B6901337B613B68FD
:103478009B7B01331A467B699342FFF477AF3B6924
:1034880001333B613B68DB7B1A463B699342FFF49F
:1034980069AFFDF7C3FD00BF1837BD4680BD00BF4B
:1034A800A404002080B586B000AF3B600346FB71E2
:1034B8000B46BB7113467B7100237B6100233B6184
:1034C8003B6800221A743B683F225A743B681F22EB
:1034D8009A743B680022DA743B6800221A753B68CC
:1034E800DA7C3B681B7C5340DBB2DB005AB23B689A
:1034F8005B7C5BB203F038035BB253405BB2DAB279
:103508003B68DA743B681B7D1A463B685B7C03F0BA
:10351800070353405B015AB23B689B7C5BB2534044
:103528005BB2DAB23B681A753B68DB7C3B733B687D
:103538001B7D7B730023FB730023BB73FA7BFB7932
:103548005340DBB2DB005AB297F9063003F0380378
:103558005BB253405BB2FB73BA7BBB7903F00703E2
:1035680053405B015AB297F9053053405BB2BB73C5
:10357800FB7B3B72BB7B7B72FDF766FDFDF759FD5C
:103588003B685B7B3B61DAE03B681B7B7B61CBE0A4
:103598003B681B7B02331A467B69934206D03B6823
:1035A8001B7B0A331A467B69934216D13B685B7BC7
:1035B80003331A463B6993420FD33B685B7B0B335B
:1035C8001A463B69934208D807F10C014FF0FF33C4
:1035D8000222614815F08FF8A3E03B681B7B053396
:1035E8001A467B6993421CD33B681B7B07331A46F8
:1035F8007B69934215D83B685B7B1A463B699342CB
:1036080006D03B685B7B0E331A463B69934208D170
:1036180007F10C014FF0FF3302224F4815F06BF809
:103628007FE03B681B7B03331A467B69934216D1C4
:103638003B685B7B02331A463B69934206D03B6882
:103648005B7B0C331A463B69934208D107F10C01A6
:103658004FF0FF330222404815F04DF861E03B6817
:103668001B7B04331A467B69934216D13B685B7B0C
:1036780001331A463B69934206D03B685B7B0D33A6
:103688001A463B69934208D107F10C014FF0FF330A
:103698000222314815F02FF843E03B681B7B0933C1
:1036A8001A467B69934216D13B685B7B02331A4604
:1036B8003B69934206D03B685B7B0C331A463B69F7
:1036C800934208D107F10C014FF0FF330222224840
:1036D80015F011F825E03B681B7B08331A467B6917
:1036E800934216D13B685B7B01331A463B69934290
:1036F80006D03B685B7B0D331A463B69934208D181
:1037080007F10C014FF0FF330222134814F0F3FFC6
:1037180007E007F108014FF0FF3302220E4814F0CA
:10372800EAFF7B6901337B613B689B7B01331A4667
:103738007B699342FFF42CAF3B6901333B613B68E3
:10374800DB7B1A463B699342FFF41EAFFDF766FC2C
:1037580000BF1837BD4680BDA404002080B586B0E0
:1037680000AF3B600346FB710B46BB7113467B7190
:1037780000237B6100233B613B6800221A743B688D
:103788003F225A743B681F229A743B680022DA74FD
:103798003B6800221A753B68DA7C3B681B7C534007
:1037A800DBB2DB005AB23B685B7C5BB203F03803E8
:1037B8005BB253405BB2DAB23B68DA743B681B7D9C
:1037C8001A463B685B7C03F0070353405B015AB21F
:1037D8003B689B7C5BB253405BB2DAB23B681A75BC
:1037E8003B68DB7C3B733B681B7D7B730023FB736F
:1037F8000023BB73FA7BFB795340DBB2DB005AB280
:1038080097F9063003F038035BB253405BB2FB73A1
:10381800BA7BBB7903F0070353405B015AB297F9AF
:10382800053053405BB2BB73FB7B3B72BB7B7B7247
:10383800FDF70AFCFDF7FDFB3B685B7B3B613AE16A
:103848003B681B7B7B612BE13B681B7B02331A4681
:103858007B69934224D13B685B7B03331A463B69FF
:10386800934206D33B685B7B05331A463B69934218
:103878000DD93B685B7B0D331A463B6993420FD3E6
:103888003B685B7B0E331A463B69934208D807F1C5
:103898000C014FF0FF3302228D4814F02CFFFCE09E
:1038A8003B681B7B05331A467B69934215D33B68FB
:1038B8001B7B09331A467B6993420ED83B685B7BB6
:1038C8001A463B69934208D107F10C014FF0FF33C8
:1038D80002227F4814F00FFFDFE03B681B7B0433B4
:1038E8001A467B69934216D33B681B7B08331A46FA
:1038F8007B6993420FD83B685B7B07331A463B6969
:10390800934208D107F10C014FF0FF3302227048AF
:1039180014F0F1FEC1E03B681B7B03331A467B6958
:10392800934216D33B681B7B07331A467B69934245
:103938000FD83B685B7B0E331A463B69934208D12C
:1039480007F10C014FF0FF330222614814F0D3FE57
:10395800A3E03B681B7B0A331A467B69934223D159
:103968003B685B7B09331A463B69934206D33B6845
:103978005B7B0B331A463B6993420CD93B685B7BF4
:103988001A463B69934206D03B685B7B01331A4673
:103998003B69934208D107F10C014FF0FF33022233
:1039A8004B4814F0A8FE78E03B681B7B03331A46AB
:1039B8007B69934216D13B685B7B02331A463B69AD
:1039C800934206D03B685B7B06331A463B699342B9
:1039D80008D107F10C014FF0FF3302223C4814F0E4
:1039E8008AFE5AE03B681B7B04331A467B69934284
:1039F80016D13B685B7B01331A463B69934206D07C
:103A08003B685B7B07331A463B69934208D107F151
:103A18000C014FF0FF3302222D4814F06CFE3CE0FD
:103A28003B681B7B08331A467B6993420FD13B687E
:103A38005B7B0D331A463B69934208D107F10C01B1
:103A48004FF0FF330222224814F055FE25E03B6870
:103A58001B7B09331A467B69934216D13B685B7B13
:103A680008331A463B69934206D03B685B7B0C33AC
:103A78001A463B69934208D107F10C014FF0FF3316
:103A88000222134814F037FE07E007F108014FF04F
:103A9800FF3302220E4814F02EFE7B6901337B614E
:103AA8003B689B7B01331A467B699342FFF4CCAE9B
:103AB8003B6901333B613B68DB7B1A463B699342B8
:103AC800FFF4BEAEFDF7AAFA00BF1837BD4680BDA9
:103AD800A404002080B586B000AF3B600346FB71AC
:103AE8000B46BB7113467B7100237B6100233B614E
:103AF8003B6800221A743B683F225A743B681F22B5
:103B08009A743B680022DA743B6800221A753B6895
:103B1800DA7C3B681B7C5340DBB2DB005AB23B6863
:103B28005B7C5BB203F038035BB253405BB2DAB242
:103B38003B68DA743B681B7D1A463B685B7C03F084
:103B4800070353405B015AB23B689B7C5BB253400E
:103B58005BB2DAB23B681A753B68DB7C3B733B6847
:103B68001B7D7B730023FB730023BB73FA7BFB79FC
:103B78005340DBB2DB005AB297F9063003F0380342
:103B88005BB253405BB2FB73BA7BBB7903F00703AC
:103B980053405B015AB297F9053053405BB2BB738F
:103BA800FB7B3B72BB7B7B72FDF74EFAFDF741FA5C
:103BB8003B685B7B3B6170E03B681B7B7B6162E041
:103BC8003B681B7B06331A467B69934215D13B68D9
:103BD8005B7B1A463B6993420FD33B685B7B0E3392
:103BE8001A463B69934208D807F10C014FF0FF339E
:103BF8000222304814F07FFD42E03B681B7B023311
:103C08001A467B69934215D33B681B7B0A331A46D5
:103C18007B6993420ED83B685B7B1A463B699342AB
:103C280008D107F10C014FF0FF330222214814F0AC
:103C380062FD25E03B681B7B02331A467B69934291
:103C480006D03B681B7B0A331A467B6993420FD127
:103C58003B685B7B01331A463B69934208D107F105
:103C68000C014FF0FF330222124814F044FD07E024
:103C780007F108014FF0FF3302220E4814F03BFD14
:103C88007B6901337B613B689B7B01331A467B6907
:103C9800934295D33B6901333B613B68DB7B1A4612
:103CA8003B69934288D3FDF7B9F900BF1837BD4681
:103CB80080BD00BFA404002080B586B000AF3B6083
:103CC8000346FB710B46BB7113467B7100237B6176
:103CD80000233B613B6800221A743B683F225A74F8
:103CE8003B681F229A743B680022DA743B68002202
:103CF8001A753B68DA7C3B681B7C5340DBB2DB00FF
:103D08005AB23B685B7C5BB203F038035BB253404A
:103D18005BB2DAB23B68DA743B681B7D1A463B68D3
:103D28005B7C03F0070353405B015AB23B689B7C02
:103D38005BB253405BB2DAB23B681A753B68DB7C16
:103D48003B733B681B7D7B730023FB730023BB73B2
:103D5800FA7BFB795340DBB2DB005AB297F90630A5
:103D680003F038035BB253405BB2FB73BA7BBB7999
:103D780003F0070353405B015AB297F905305340EB
:103D88005BB2BB73FB7B3B72BB7B7B72FDF75CF961
:103D9800FDF74FF93B685B7B3B6199E03B681B7B18
:103DA8007B618AE03B681B7B09331A467B69934237
:103DB80015D13B685B7B1A463B6993420FD33B683E
:103DC8005B7B0E331A463B69934208D807F10C0116
:103DD8004FF0FF330222454814F08DFC6AE03B683F
:103DE8001B7B07331A467B69934216D33B681B7BC0
:103DF8000A331A467B6993420FD83B685B7B0E33C4
:103E08001A463B69934208D107F10C014FF0FF3382
:103E18000222364814F06FFC4CE03B681B7B0633EB
:103E28001A467B6993420FD13B685B7B03331A4682
:103E38003B69934208D107F10C014FF0FF3302228E
:103E48002A4814F058FC35E03B681B7B07331A46B8
:103E58007B6993420FD13B685B7B02331A463B690F
:103E6800934208D107F10C014FF0FF3302221F489B
:103E780014F041FC1EE03B681B7B08331A467B6943
:103E880093420FD13B685B7B01331A463B699342EF
:103E980008D107F10C014FF0FF330222134814F048
:103EA8002AFC07E007F108014FF0FF3302220F4810
:103EB80014F021FC7B6901337B613B689B7B0133F8
:103EC8001A467B699342FFF46DAF3B6901333B614E
:103ED8003B68DB7B1A463B699342FFF45FAFFDF713
:103EE8009DF800BF1837BD4680BD00BFA404002060
:103EF80080B586B000AF3B600346FB710B46BB71D3
:103F080013467B7100237B6100233B613B680022E1
:103F18001A743B683F225A743B681F229A743B68A4
:103F28000022DA743B6800221A753B68DA7C3B6829
:103F38001B7C5340DBB2DB005AB23B685B7C5BB254
:103F480003F038035BB253405BB2DAB23B68DA7411
:103F58003B681B7D1A463B685B7C03F007035340B4
:103F68005B015AB23B689B7C5BB253405BB2DAB2EE
:103F78003B681A753B68DB7C3B733B681B7D7B7336
:103F88000023FB730023BB73FA7BFB795340DBB23E
:103F9800DB005AB297F9063003F038035BB253409E
:103FA8005BB2FB73BA7BBB7903F0070353405B0139
:103FB8005AB297F9053053405BB2BB73FB7B3B7237
:103FC800BB7B7B72FDF740F8FDF733F83B685B7B02
:103FD8003B611FE13B681B7B7B6110E13B681B7BFE
:103FE80003331A467B6993421DD13B685B7B0B33D5
:103FF8001A463B69934206D33B685B7B0E331A46ED
:104008003B69934206D93B685B7B02331A463B699E
:10401800934208D107F10C014FF0FF330222844884
:1040280014F069FBE8E03B681B7B05331A467B69A3
:10403800934215D33B681B7B07331A467B6993422F
:104048000ED83B685B7B1A463B69934208D107F15F
:104058000C014FF0FF330222754814F04CFBCBE003
:104068003B681B7B03331A467B69934216D33B6834
:104078001B7B0A331A467B6993420FD83B685B7BEC
:104088000D331A463B69934208D107F10C014FF0F2
:10409800FF330222664814F02EFBADE03B681B7B21
:1040A80009331A467B6993421DD13B685B7B023317
:1040B8001A463B69934206D33B685B7B05331A4635
:1040C8003B69934206D93B685B7B0D331A463B69D3
:1040D800934208D107F10C014FF0FF3302225448F4
:1040E80014F009FB88E03B681B7B04331A467B69A4
:1040F800934216D13B685B7B01331A463B69934276
:1041080006D03B685B7B0A331A463B69934208D169
:1041180007F10C014FF0FF330222454814F0EBFA87
:104128006AE03B681B7B08331A467B69934216D1C9
:104138003B685B7B01331A463B69934206D03B6878
:104148005B7B06331A463B69934208D107F10C01A1
:104158004FF0FF330222364814F0CDFA4CE03B68AA
:104168001B7B05331A467B6993420FD13B685B7B07
:1041780009331A463B69934208D107F10C014FF005
:10418800FF3302222A4814F0B6FA35E03B681B7B5D
:1041980006331A467B6993420FD13B685B7B083331
:1041A8001A463B69934208D107F10C014FF0FF33DF
:1041B80002221F4814F09FFA1EE03B681B7B07335E
:1041C8001A467B6993420FD13B685B7B07331A46DB
:1041D8003B69934208D107F10C014FF0FF330222EB
:1041E800134814F088FA07E007F108014FF0FF338D
:1041F80002220F4814F07FFA7B6901337B613B6828
:104208009B7B01331A467B699342FFF4E7AE3B6917
:1042180001333B613B68DB7B1A463B699342FFF401
:10422800D9AEFCF7FBFE00BF1837BD4680BD00BF06
:10423800A404002080B586B000AF3B600346FB7144
:104248000B46BB7113467B7100237B6100233B61E6
:104258003B6800221A743B683F225A743B681F224D
:104268009A743B680022DA743B6800221A753B682E
:10427800DA7C3B681B7C5340DBB2DB005AB23B68FC
:104288005B7C5BB203F038035BB253405BB2DAB2DB
:104298003B68DA743B681B7D1A463B685B7C03F01D
:1042A800070353405B015AB23B689B7C5BB25340A7
:1042B8005BB2DAB23B681A753B68DB7C3B733B68E0
:1042C8001B7D7B730023FB730023BB73FA7BFB7995
:1042D8005340DBB2DB005AB297F9063003F03803DB
:1042E8005BB253405BB2FB73BA7BBB7903F0070345
:1042F80053405B015AB297F9053053405BB2BB7328
:10430800FB7B3B72BB7B7B72FCF79EFEFCF791FE4E
:104318003B685B7B3B61F6E03B681B7B7B61E7E0CE
:104328003B681B7B07331A467B69934224D13B6861
:104338005B7B01331A463B69934214D03B685B7B35
:1043480006331A463B6993420DD03B685B7B0833C2
:104358001A463B69934206D03B685B7B0D331A468D
:104368003B69934208D107F10C014FF0FF33022259
:104378006B4814F0C0F9B8E03B681B7B03331A465E
:104388007B69934215D33B681B7B06331A467B69CE
:1043980093420ED83B685B7B1A463B69934208D12F
:1043A80007F10C014FF0FF3302225D4814F0A3F926
:1043B8009BE03B681B7B04331A467B69934216D308
:1043C8003B681B7B06331A467B6993420FD83B68D0
:1043D8005B7B07331A463B69934208D107F10C010E
:1043E8004FF0FF3302224E4814F085F97DE03B6818
:1043F8001B7B03331A467B69934216D33B681B7BAE
:1044080006331A467B6993420FD83B685B7B0E33B1
:104418001A463B69934208D107F10C014FF0FF336C
:1044280002223F4814F067F95FE03B681B7B0833C2
:104438001A467B69934224D13B685B7B02331A4658
:104448003B69934214D03B685B7B05331A463B6952
:1044580093420DD03B685B7B09331A463B69934214
:1044680006D03B685B7B0C331A463B69934208D104
:1044780007F10C014FF0FF330222294814F03BF9F1
:1044880033E03B681B7B09331A467B69934224D18E
:104498003B685B7B03331A463B69934214D03B6805
:1044A8005B7B04331A463B6993420DD03B685B7BC8
:1044B8000A331A463B69934206D03B685B7B6F33ED
:1044C8001A463B69934208D107F10C014FF0FF33BC
:1044D8000222134814F00FF907E007F108014FF022
:1044E800FF3302220E4814F006F97B6901337B6121
:1044F8003B689B7B01331A467B699342FFF410AFFC
:104508003B6901333B613B68DB7B1A463B6993425D
:10451800FFF402AFFCF782FD00BF1837BD4680BD2F
:10452800A404002080B586B000AF3B600346FB7151
:104538000B46BB7113467B7100237B6100233B61F3
:104548003B6800221A743B683F225A743B681F225A
:104558009A743B680022DA743B6800221A753B683B
:10456800DA7C3B681B7C5340DBB2DB005AB23B6809
:104578005B7C5BB203F038035BB253405BB2DAB2E8
:104588003B68DA743B681B7D1A463B685B7C03F02A
:10459800070353405B015AB23B689B7C5BB25340B4
:1045A8005BB2DAB23B681A753B68DB7C3B733B68ED
:1045B8001B7D7B730023FB730023BB73FA7BFB79A2
:1045C8005340DBB2DB005AB297F9063003F03803E8
:1045D8005BB253405BB2FB73BA7BBB7903F0070352
:1045E80053405B015AB297F9053053405BB2BB7335
:1045F800FB7B3B72BB7B7B72FCF726FDFCF719FD4E
:104608003B685B7B3B61E5E03B681B7B7B61D6E0FD
:104618003B681B7B08331A467B69934215D13B687C
:104628005B7B1A463B6993420FD33B685B7B0E3337
:104638001A463B69934208D807F10C014FF0FF3343
:1046480002226B4814F057F8B6E03B681B7B023334
:104658001A467B69934216D33B681B7B0A331A467A
:104668007B6993420FD83B685B7B07331A463B69EB
:10467800934208D107F10C014FF0FF3302225C4846
:1046880014F039F898E03B681B7B03331A467B69C2
:1046980093420FD13B685B7B06331A463B699342D2
:1046A80008D107F10C014FF0FF330222504814F0F3
:1046B80022F881E03B681B7B04331A467B699342EE
:1046C8000FD13B685B7B05331A463B69934208D19F
:1046D80007F10C014FF0FF330222454814F00BF8A4
:1046E8006AE03B681B7B05331A467B6993420FD10E
:1046F8003B685B7B04331A463B69934208D107F158
:104708000C014FF0FF330222394813F0F4FF53E055
:104718003B681B7B06331A467B6993420FD13B6883
:104728005B7B03331A463B69934208D107F10C01BE
:104738004FF0FF3302222E4813F0DDFF3CE03B68C8
:104748001B7B07331A467B6993420FD13B685B7B1F
:1047580002331A463B69934208D107F10C014FF026
:10476800FF330222224813F0C6FF25E03B681B7B7B
:1047780008331A467B69934216D33B681B7B0A337E
:104788001A467B6993420FD83B685B7B0E331A4607
:104798003B69934208D107F10C014FF0FF33022225
:1047A800134813F0A8FF07E007F108014FF0FF33A3
:1047B80002220F4813F09FFF7B6901337B613B683E
:1047C8009B7B01331A467B699342FFF421AF3B6917
:1047D80001333B613B68DB7B1A463B699342FFF43C
:1047E80013AFFCF71BFC00BF1837BD4680BD00BFE8
:1047F800A404002080B586B000AF3B600346FB717F
:104808000B46BB7113467B7100237B6100233B6120
:104818003B6800221A743B683F225A743B681F2287
:104828009A743B680022DA743B6800221A753B6868
:10483800DA7C3B681B7C5340DBB2DB005AB23B6836
:104848005B7C5BB203F038035BB253405BB2DAB215
:104858003B68DA743B681B7D1A463B685B7C03F057
:10486800070353405B015AB23B689B7C5BB25340E1
:104878005BB2DAB23B681A753B68DB7C3B733B681A
:104888001B7D7B730023FB730023BB73FA7BFB79CF
:104898005340DBB2DB005AB297F9063003F0380315
:1048A8005BB253405BB2FB73BA7BBB7903F007037F
:1048B80053405B015AB297F9053053405BB2BB7362
:1048C800FB7B3B72BB7B7B72FCF7BEFBFCF7B1FB4F
:1048D8003B685B7B3B61CCE03B681B7B7B61BDE05D
:1048E8003B681B7B02331A467B69934216D13B68AF
:1048F8005B7B01331A463B6993420FD33B685B7B72
:1049080006331A463B69934208D807F10C014FF069
:10491800FF3302225D4813F0EEFE9CE03B681B7BF0
:1049280002331A467B69934215D33B681B7B0A33D3
:104938001A467B6993420ED83B685B7B1A463B69F3
:10494800934208D107F10C014FF0FF3302224F4880
:1049580013F0D1FE7FE03B681B7B02331A467B696C
:10496800934216D33B681B7B08331A467B699342F4
:104978000FD83B685B7B07331A463B69934208D1E3
:1049880007F10C014FF0FF330222404813F0B3FE49
:1049980061E03B681B7B02331A467B69934216D35E
:1049A8003B681B7B08331A467B6993420FD83B68E8
:1049B8005B7B0E331A463B69934208D107F10C0121
:1049C8004FF0FF330222314813F095FE43E03B6875
:1049D8001B7B09331A467B69934216D13B685B7B84
:1049E80008331A463B69934206D03B685B7B0D331C
:1049F8001A463B69934208D107F10C014FF0FF3387
:104A08000222224813F077FE25E03B681B7B0A331D
:104A18001A467B69934216D13B685B7B09331A4679
:104A28003B6993420FD33B685B7B0C331A463B6967
:104A3800934208D807F10C014FF0FF3302221348C4
:104A480013F059FE07E007F108014FF0FF33022287
:104A58000E4813F050FE7B6901337B613B689B7BFA
:104A680001331A467B699342FFF43AAF3B6901333D
:104A78003B613B68DB7B1A463B699342FFF42CAFF2
:104A8800FCF7CCFA00BF1837BD4680BDA40400204F
:104A980080B586B000AF3B600346FB710B46BB7127
:104AA80013467B7100237B6100233B613B68002236
:104AB8001A743B683F225A743B681F229A743B68F9
:104AC8000022DA743B6800221A753B68DA7C3B687E
:104AD8001B7C5340DBB2DB005AB23B685B7C5BB2A9
:104AE80003F038035BB253405BB2DAB23B68DA7466
:104AF8003B681B7D1A463B685B7C03F00703534009
:104B08005B015AB23B689B7C5BB253405BB2DAB242
:104B18003B681A753B68DB7C3B733B681B7D7B738A
:104B28000023FB730023BB73FA7BFB795340DBB292
:104B3800DB005AB297F9063003F038035BB25340F2
:104B48005BB2FB73BA7BBB7903F0070353405B018D
:104B58005AB297F9053053405BB2BB73FB7B3B728B
:104B6800BB7B7B72FCF770FAFCF763FA3B685B7BF4
:104B78003B6126E13B681B7B7B6117E13B681B7B44
:104B880002331A467B69934216D13B685B7B063336
:104B98001A463B6993420FD33B685B7B0B331A463B
:104BA8003B69934208D807F10C014FF0FF3302220A
:104BB8008A4813F0A0FDF6E03B681B7B05331A46D4
:104BC8007B69934216D33B681B7B08331A467B6983
:104BD80093420FD83B685B7B07331A463B69934285
:104BE80008D107F10C014FF0FF3302227B4813F084
:104BF80082FDD8E03B681B7B02331A467B699342EF
:104C080016D33B681B7B08331A467B6993420FD83F
:104C18003B685B7B0E331A463B69934208D107F128
:104C28000C014FF0FF3302226C4813F064FDBAE028
:104C38003B681B7B07331A467B69934215D33B6855
:104C48001B7B0A331A467B6993420ED83B685B7B11
:104C58001A463B69934208D107F10C014FF0FF3324
:104C680002225E4813F047FD9DE03B681B7B03333F
:104C78001A467B6993421DD13B685B7B04331A4615
:104C88003B6993420DD03B685B7B09331A463B690D
:104C9800934206D03B685B7B0C331A463B699342D0
:104CA80008D107F10C014FF0FF3302224B4813F0F3
:104CB80022FD78E03B681B7B04331A467B699342EC
:104CC8001DD13B685B7B03331A463B6993420DD089
:104CD8003B685B7B08331A463B69934206D03B68C6
:104CE8005B7B0D331A463B69934208D107F10C01EF
:104CF8004FF0FF330222394813F0FDFC53E03B68C4
:104D08001B7B05331A467B6993420FD13B685B7B5B
:104D180002331A463B69934208D107F10C014FF060
:104D2800FF3302222D4813F0E6FC3CE03B681B7B76
:104D380006331A467B6993420FD13B685B7B01338C
:104D48001A463B69934208D107F10C014FF0FF3333
:104D58000222224813F0CFFC25E03B681B7B093375
:104D68001A467B69934216D13B685B7B08331A4627
:104D78003B69934206D03B685B7B0D331A463B691F
:104D8800934208D107F10C014FF0FF330222134878
:104D980013F0B1FC07E007F108014FF0FF330222DE
:104DA8000E4813F0A8FC7B6901337B613B689B7B51
:104DB80001331A467B699342FFF4E0AE3B69013345
:104DC8003B613B68DB7B1A463B699342FFF4D2AEFA
:104DD800FCF724F900BF1837BD4680BDA4040020A5
:104DE80080B586B000AF3B600346FB710B46BB71D4
:104DF80013467B7100237B6100233B613B680022E3
:104E08001A743B683F225A743B681F229A743B68A5
:104E18000022DA743B6800221A753B68DA7C3B682A
:104E28001B7C5340DBB2DB005AB23B685B7C5BB255
:104E380003F038035BB253405BB2DAB23B68DA7412
:104E48003B681B7D1A463B685B7C03F007035340B5
:104E58005B015AB23B689B7C5BB253405BB2DAB2EF
:104E68003B681A753B68DB7C3B733B681B7D7B7337
:104E78000023FB730023BB73FA7BFB795340DBB23F
:104E8800DB005AB297F9063003F038035BB253409F
:104E98005BB2FB73BA7BBB7903F0070353405B013A
:104EA8005AB297F9053053405BB2BB73FB7B3B7238
:104EB800BB7B7B72FCF7C8F8FCF7BBF83B685B7BF5
:104EC8003B613DE03B681B7B7B612FE03B681B7BC4
:104ED80002331A467B6993421DD33B681B7B0A3316
:104EE8001A467B69934216D83B685B7B2A331A467D
:104EF8003B6993420FD33B685B7B32331A463B696D
:104F0800934208D807F10C014FF0FF3302221248F0
:104F180013F0F1FB07E007F108014FF0FF3302221D
:104F28000D4813F0E8FB7B6901337B613B689B7B91
:104F380001331A467B699342C8D33B6901333B610D
:104F48003B68DB7B1A463B699342BBD3FCF766F8A8
:104F580000BF1837BD4680BDA404002080B586B0C8
:104F680000AF3B600346FB710B46BB7113467B7178
:104F780000237B6100233B613B68DB7C3B733B6820
:104F88001B7D7B730023FB730023BB73FA7BFB79C8
:104F98005340DBB2DB005AB297F9063003F038030E
:104FA8005BB253405BB2FB73BA7BBB7903F0070378
:104FB80053405B015AB297F9053053405BB2BB735B
:104FC800FB7B3B72BB7B7B72FCF73EF8FCF731F84E
:104FD8003B685B7B3B6136E03B681B7B7B6128E081
:104FE8003B681B7B01331A467B69934216D33B68A7
:104FF8001B7B09331A467B6993420FD83B685B7B5E
:1050080007331A463B69934208D107F10C014FF068
:10501800FF330222124813F06EFB07E007F1080184
:105028004FF0FF3302220E4813F065FB7B69013312
:105038007B613B689B7B01331A467B699342CFD3E4
:105048003B6901333B613B68DB7B1A463B69934212
:10505800C2D3FBF7E3FF00BF1837BD4680BD00BFD2
:10506800A404002080B586B000AF3B600346FB7106
:105078000B46BB7113467B7100237B6100233B61A8
:105088003B6800221A743B683F225A743B681F220F
:105098009A743B680022DA743B6800221A753B68F0
:1050A800DA7C3B681B7C5340DBB2DB005AB23B68BE
:1050B8005B7C5BB203F038035BB253405BB2DAB29D
:1050C8003B68DA743B681B7D1A463B685B7C03F0DF
:1050D800070353405B015AB23B689B7C5BB2534069
:1050E8005BB2DAB23B681A753B68DB7C3B733B68A2
:1050F8001B7D7B730023FB730023BB73FA7BFB7957
:105108005340DBB2DB005AB297F9063003F038039C
:105118005BB253405BB2FB73BA7BBB7903F0070306
:1051280053405B015AB297F9053053405BB2BB73E9
:10513800FB7B3B72BB7B7B72FBF786FFFBF779FF40
:105148003B685B7B3B6100F03FBD3B681B7B7B6141
:1051580000F02FBD3B681B7B0A331A467B699342DC
:105168001DD33B681B7B15331A467B69934216D8BF
:105178003B685B7B1A463B69934210D33B685B7B79
:1051880004331A463B69934209D807F10C014FF0E2
:10519800FF330222994813F0AEFA00F007BD3B68CE
:1051A8001B7B0A331A467B6993421ED33B681B7BE1
:1051B80015331A467B69934217D83B685B7B1533D6
:1051C8001A463B69934210D33B685B7B1C331A46F3
:1051D8003B69934209D807F10C014FF0FF330222D3
:1051E800864813F088FA00F0E1BC3B681B7B0A3361
:1051F8001A467B6993421ED33B681B7B15331A46BC
:105208007B69934217D83B685B7B2F331A463B690F
:10521800934210D33B685B7B32331A463B69934217
:1052280009D807F10C014FF0FF330222734813F03D
:1052380062FA00F0BBBC3B681B7B02331A467B69F1
:1052480093421ED33B681B7B05331A467B69934206
:1052580017D83B685B7B08331A463B69934210D3E7
:105268003B685B7B11331A463B69934209D807F1C7
:105278000C014FF0FF330222604813F03CFA00F0B3
:1052880095BC3B681B7B02331A467B6993421ED34D
:105298003B681B7B05331A467B69934217D83B68EA
:1052A8005B7B20331A463B69934210D33B685B7B98
:1052B8002B331A463B69934209D807F10C014FF08A
:1052C800FF3302224D4813F016FA00F06FBC3B681A
:1052D8001B7B19331A467B6993421ED33B681B7BA1
:1052E8001D331A467B69934217D83B685B7B0833AA
:1052F8001A463B69934210D33B685B7B11331A46CD
:105308003B69934209D807F10C014FF0FF330222A1
:105318003A4813F0F0F900F049BC3B681B7B19339D
:105328001A467B6993421ED33B681B7B1D331A4682
:105338007B69934217D83B685B7B20331A463B69ED
:10534800934210D33B685B7B2B331A463B699342ED
:1053580009D807F10C014FF0FF330222274813F058
:10536800CAF900F023BC3B681B7B02331A467B69F1
:10537800934217D13B685B7B1F331A463B699342C4
:1053880010D33B685B7B2B331A463B69934209D8A1
:1053980007F10C014FF0FF330222184813F0ABF964
:1053A80000F004BC3B681B7B03331A467B699342BD
:1053B80026D13B685B7B07331A463B69934206D389
:1053C8003B685B7B12331A463B6993420DD93B68B5
:1053D8005B7B1E331A463B69934211D33B685B7B68
:1053E8002C331A463B6993420AD807F10C014FF057
:1053F800FF330222014813F07EF9D7E3A40400200A
:105408003B681B7B04331A467B69934224D13B6873
:105418005B7B06331A463B69934206D33B685B7B4A
:1054280013331A463B6993420DD93B685B7B1D33A6
:105438001A463B6993420FD33B685B7B2D331A4670
:105448003B69934208D807F10C014FF0FF33022261
:105458009B4813F050F9A9E33B681B7B05331A46B8
:105468007B69934224D13B685B7B05331A463B69D1
:10547800934206D33B685B7B14331A463B699342DD
:105488000DD93B685B7B1C331A463B6993420FD3AB
:105498003B685B7B2E331A463B69934208D807F179
:1054A8000C014FF0FF330222854813F024F97DE305
:1054B8003B681B7B06331A467B69934224D13B68C1
:1054C8005B7B04331A463B69934206D33B685B7B9C
:1054D80007331A463B6993420DD93B685B7B12330D
:1054E8001A463B6993420FD33B685B7B15331A46D8
:1054F8003B69934208D807F10C014FF0FF330222B1
:105508006F4813F0F8F851E33B681B7B06331A46E3
:105518007B69934224D13B685B7B1B331A463B690A
:10552800934206D33B685B7B1F331A463B69934221
:105538000DD93B685B7B2C331A463B6993420FD3EA
:105548003B685B7B2F331A463B69934208D807F1C7
:105558000C014FF0FF330222594813F0CCF825E331
:105568003B681B7B07331A467B69934224D13B680F
:105578005B7B03331A463B69934206D33B685B7BEC
:1055880006331A463B6993420DD93B685B7B13335C
:105598001A463B6993420FD33B685B7B16331A4626
:1055A8003B69934208D807F10C014FF0FF33022200
:1055B800434813F0A0F8F9E23B681B7B07331A460F
:1055C8007B69934224D13B685B7B1A331A463B695B
:1055D800934206D33B685B7B1E331A463B69934272
:1055E8000DD93B685B7B2D331A463B6993420FD339
:1055F8003B685B7B30331A463B69934208D807F116
:105608000C014FF0FF3302222D4813F074F8CDE25D
:105618003B681B7B08331A467B69934224D13B685D
:105628005B7B02331A463B69934206D33B685B7B3C
:1056380005331A463B6993420DD93B685B7B1433AB
:105648001A463B6993420FD33B685B7B17331A4674
:105658003B69934208D807F10C014FF0FF3302224F
:10566800174813F048F8A1E23B681B7B08331A4639
:105678007B69934226D13B685B7B14331A463B69AE
:10568800934206D33B685B7B1D331A463B699342C2
:105698000DD93B685B7B2E331A463B69934211D385
:1056A8003B685B7B31331A463B6993420AD807F162
:1056B8000C014FF0FF330222014813F01CF875E289
:1056C800A40400203B681B7B09331A467B6993427C
:1056D80024D13B685B7B01331A463B69934206D36E
:1056E8003B685B7B04331A463B6993420DD93B68A0
:1056F8005B7B15331A463B6993420FD33B685B7B50
:105708001C331A463B69934208D807F10C014FF045
:10571800FF3302228D4812F0EEFF47E23B681B7B05
:1057280009331A467B69934216D13B685B7B2F335A
:105738001A463B6993420FD33B685B7B32331A4668
:105748003B69934208D807F10C014FF0FF3302225E
:105758007E4812F0D0FF29E23B681B7B16331A46BD
:105768007B69934224D13B685B7B01331A463B69D2
:10577800934206D33B685B7B04331A463B699342EA
:105788000DD93B685B7B14331A463B6993420FD3B0
:105798003B685B7B1D331A463B69934208D807F187
:1057A8000C014FF0FF330222684812F0A4FFFDE11C
:1057B8003B681B7B16331A467B69934216D13B68BC
:1057C8005B7B2E331A463B6993420FD33B685B7B66
:1057D80032331A463B69934208D807F10C014FF05F
:1057E800FF330222594812F086FFDFE13B681B7B3A
:1057F80017331A467B69934224D13B685B7B02339B
:105808001A463B69934206D33B685B7B05331A46CD
:105818003B6993420DD93B685B7B13331A463B695E
:1058280093420FD33B685B7B17331A463B6993421D
:1058380008D807F10C014FF0FF330222434812F059
:105848005AFFB3E13B681B7B17331A467B699342C7
:1058580024D13B685B7B19331A463B69934206D3D4
:105868003B685B7B1E331A463B6993420DD93B6804
:105878005B7B2D331A463B6993420FD33B685B7BB6
:1058880031331A463B69934208D807F10C014FF0AF
:10589800FF3302222D4812F02EFF87E13B681B7B65
:1058A80018331A467B69934224D13B685B7B0333E8
:1058B8001A463B69934206D33B685B7B06331A461C
:1058C8003B6993420DD93B685B7B12331A463B69AF
:1058D80093420FD33B685B7B16331A463B6993426E
:1058E80008D807F10C014FF0FF330222174812F0D5
:1058F80002FF5BE13B681B7B18331A467B699342C6
:1059080026D13B685B7B1A331A463B69934206D320
:105918003B685B7B1F331A463B6993420DD93B6852
:105928005B7B2C331A463B69934211D33B685B7B04
:1059380030331A463B6993420AD807F10C014FF0FD
:10594800FF330222014812F0D6FE2FE1A404002002
:105958003B681B7B19331A467B69934224D13B6809
:105968005B7B04331A463B69934206D33B685B7BF7
:1059780007331A463B6993420DD93B685B7B113369
:105988001A463B6993420FD33B685B7B15331A4633
:105998003B69934208D807F10C014FF0FF3302220C
:1059A800904812F0A8FE01E13B681B7B19331A46A8
:1059B8007B69934224D13B685B7B1B331A463B6966
:1059C800934206D33B685B7B20331A463B6993427C
:1059D8000DD93B685B7B2B331A463B6993420FD347
:1059E8003B685B7B2F331A463B69934208D807F123
:1059F8000C014FF0FF3302227A4812F07CFED5E00A
:105A08003B681B7B1A331A467B69934224D13B6857
:105A18005B7B05331A463B69934206D33B685B7B45
:105A280007331A463B6993420DD93B685B7B1133B8
:105A38001A463B6993420FD33B685B7B14331A4683
:105A48003B69934208D807F10C014FF0FF3302225B
:105A5800644812F050FEA9E03B681B7B1A331A46D3
:105A68007B69934216D13B685B7B1C331A463B69C2
:105A780093420FD33B685B7B2E331A463B699342B4
:105A880008D807F10C014FF0FF330222554812F0F5
:105A980032FE8BE03B681B7B1B331A467B699342C3
:105AA80024D13B685B7B06331A463B69934206D395
:105AB8003B685B7B13331A463B6993420DD93B68BD
:105AC8005B7B1D331A463B6993420FD33B685B7B74
